:04C000006F20807DB0
:10C00400000000000000000090000020280900202B
:10C01400A9BDF9F594000020000000000000000014
:10C02400960000209800002000000000000000009E
:10C034009A000020000000009C0000200000000086
:10C044009E0000201603002044030020A4000020CA
:10C05400A6000020A8000020AA000020AC000020B8
:10C06400AE000020B0000020C60000205A010020CD
:10C07400A4090020B8000020BA000020BC00002061
:10C08400BE000020EE01002082020020C400002037
:10C0940001A001A001A001A001A001A001A001A094
:10C0A40001A001A001A001A001A001A001A001A084
:10C0B40001A001A001A001A001A001A001A001A074
:10C0C40001A001A001A037370040834747009946EB
:10C0D4004111BD8B638CD70231476384E706114756
:10C0E400639EE702A3030100174600000346865F30
:10C0F40037370040834771006315F6022C0013851F
:10C104004159977001E0E780A08309A8834757004D
:10C1140093F7F70F2304F100834781004101730073
:10C12400203083477100834687000C08AE97238C28
:10C13400D7FE83477100850793F7F70FA303F10038
:10C1440055BF280097D001E0E78040091375F50F2B
:10C15400A303A1000346710055B737370040834756
:10C16400474099464111BD8B638CD70231476384A4
:10C17400E7061147639EE702A30301001746000088
:10C184000346665637370040834771006315F6024D
:10C194002C001385815A976001E0E780607A09A832
:10C1A4008347574093F7F70F2304F1008347810037
:10C1B40041017300203083477100834687400C0897
:10C1C400AE97238CD7FE83477100850793F7F70F4B
:10C1D400A303F10055BF280097D001E0E780C01108
:10C1E4001375F50FA303A1000346710055B7374734
:10C1F40000408347478099464111BD8B638CD70229
:10C2040031476384E7061147639EE702A3030100F5
:10C21400174600000346164D374700408347710018
:10C224006315F6022C001385C15B976001E0E7807B
:10C23400207109A88347578093F7F70F2304F1006F
:10C244008347810041017300203083477100834696
:10C2540087800C08AE97238CD7FE8347710085072F
:10C2640093F7F70FA303F10055BF280097D001E01F
:10C27400E780401A1375F50FA303A100034671006C
:10C2840055B737470040834747C099464111BD8B96
:10C29400638CD70231476384E7061147639EE70244
:10C2A400A3030100174600000346664537470040D4
:10C2B400834771006315F6022C001385015D9760B6
:10C2C40001E0E780E06709A8834757C093F7F70FB9
:10C2D4002304F10083478100410173002030834728
:10C2E4007100834687C00C08AE97238CD7FE834722
:10C2F4007100850793F7F70FA303F10055BF2800DA
:10C3040097D001E0E780C0221375F50FA303A100C5
:10C314000346710055B7411122C6371400408357B4
:10C32400C40913971701635B0700A145014597C032
:10C3340001E0E78020859167231EF408324441011F
:10C3440073002030B717004003D7E70903D7E70984
:10C354009316170163D40604174700000347475296
:10C36400050797460000238DE65017470000035742
:10C37400E74913670740974600002399E648116789
:10C38400239FE70803A7470C916613161701635907
:10C39400060003A7C70C558F23A6E70C73002030B3
:10C3A40003A7870C558F23A4E70CCDBF411122C4EA
:10C3B40006C69747000083C7C7C617440000130486
:10C3C400E44495CB83475405858B95C78357040074
:10C3D40013974701634107028D45094597B001E072
:10C3E400E780407A9145174500000345854497E06E
:10C3F40001E0E780006E9747000083D7274113F7D9
:10C40400074005CF13974701634107028D4509454E
:10C4140097B001E0E7800077914517450000034598
:10C42400454197E001E0E780C06A8357040093F731
:10C43400F7BF17470000231BF73CB24022444101D9
:10C4440082804111814601468145114506C6EF00AF
:10C45400A077B727004011472383E780B7F700E0B0
:10C4640003A707D16D9B23A8E7D003A707D15D9B42
:10C4740023A8E7D07300501001000100B24041012D
:10C4840082804111814681450146114506C62D2F02
:10C49400B727004011472383E780B717004003C73D
:10C4A400E70283C5E70483D7870391661377F70F01
:10C4B40093E5350063E5D700719B13671700B71741
:10C4C4000040130670052380C704930680FA238076
:10C4D400D70401000100238207022380C7042380BC
:10C4E400D704010001002387E7022387B7042380D0
:10C4F400C7042380D7040100010003C7B7041367EE
:10C504000702A385E7042380070437F700E08325A7
:10C5140007D193E545002328B7D0832507D1DD99BA
:10C524002328B7D073005010010001002380C704F2
:10C534002380D7040100010003C7B7041377F70D64
:10C54400A385E70423800704B240410182800111DE
:10C55400B7F5070022CC8146E1052A840A861945ED
:10C5640006CE26CA02C023120100B92DB717004017
:10C5740003C7E70283C5E70483D78703916613776C
:10C58400F70F93E5350063E5D700719B1367170038
:10C59400B7170040130670052380C704930680FA7A
:10C5A4002380D70401000100238207022380C704EB
:10C5B4002380D704010001002387E7022387B704FF
:10C5C40023800704B7F500E003A705D113674700EC
:10C5D40023A8E5D003D50702657711071375056015
:10C5E400418D598D4205418101002380C704238078
:10C5F400D7040100010003C7F70037F40700B7F4BC
:10C6040000E013670704A387E70003C7B7046104C6
:10C6140013670702A385E7042390A70283A704D125
:10C62400DD9B23A8F4D07300501001000100130512
:10C634006004352E81463000A285194502C42316B4
:10C644000100592322478247E31AF7FCB717004039
:10C65400130770052380E704130780FA2380E70497
:10C664000100010003C7B7041377F70DA385E7049E
:10C6740023800704F2406244D244056182800111A0
:10C684004EC681460146AA898145114506CE22CC73
:10C6940026CA4AC8152BB716004083C7E60203C74B
:10C6A400E60483D68603116693F7F70F1367370002
:10C6B40063E5C600F19B93E71700371400401309A4
:10C6C400700523002405930480FA230094040100D8
:10C6D4000100230204022300240523009404010022
:10C6E40001002307F4022307E404230004041305D0
:10C6F40050025920B7F700E003A707D1136747009A
:10C7040023A8E7D02300240523009404010001009A
:10C714000347F40013670704A307E4002300240578
:10C7240023009404010001002567B3E9E900231004
:10C73400340303A707D15D9B23A8E7D073005010EF
:10C74400010001008146014681451145B5292300B8
:10C75400240523009404010001008347640493E743
:10C7640017002303F40423000404F2406244D24477
:10C774004249B24905618280B717004093067005AB
:10C784002380D704130780FA2380E7040100010003
:10C7940003C6B7041376F60DA385C70423800704E4
:10C7A400137605024DC203C6A700118A1DE2238039
:10C7B400D7042380E7040100010003C7A70013671F
:10C7C40047002385E7009307004B01000100FD1794
:10C7D400EDFFB7170040930670052380D7041307B5
:10C7E40080FA2380E704010001007D892394A700D7
:10C7F4000100010001000100238007042380D70405
:10C804002380E704010001000100010037270040F4
:10C8140093061005A303D78023800704B7170040AD
:10C82400130770052380E704130780FA2380E704C5
:10C834000100010003C7B70413670708A385E704D1
:10C844002380070482801376050441C603C6A7002B
:10C85400418A1DE22380D7042380E70401000100FC
:10C8640003C7A700136707012385E7009307007D2B
:10C8740001000100FD17EDFFB71700409306700596
:10C884002380D704130780FA2380E7040100010002
:10C894001376F501136606042394C7000100010012
:10C8A40001000100238007042380D70413066004D9
:10C8B4002380E7046318C500010001003727004006
:10C8C400894689BF010001003727004093062005EF
:10C8D40091B72380D7042380E7040100010003D724
:10C8E40087001367070C2394E7000DBF41118146AD
:10C8F40001468145114506C6C12CB71700401307F0
:10C9040070052380E704130780FA2380E7040100FD
:10C91400010003C76704136717002383E704238018
:10C924000704B24041018280814601468145114598
:10C93400612CB7170040930670052380D7041307B2
:10C9440080FA2380E704010001007D562396C70284
:10C954002380D7042380E7040100010003C7670490
:10C96400136717002383E7042380070401A0BD474E
:10C974003305F50201007D1575FD8280411122C445
:10C9840026C206C6AA84014463179400B240224416
:10C9940092444101828005041305803E4204C13F54
:10C9A4004180DDB7B7170040130700032388E7026F
:10C9B4008547174700002321F7F0730020303971B1
:10C9C40022DC4ED656D237140040E57AB7F9070078
:10C9D40026DA52D45AD05ECE06DE4AD862CC2A8BEE
:10C9E400916B93040404130A7005910AE1098347C7
:10C9F400E4020347E4048356840393F7F70F1367B1
:10CA0400370063E57601F19B93E717002380440127
:10CA1400130980FA23802401010001002302040287
:10CA24002380440123802401010001002307F40230
:10CA34002307E4042380040037F700E0832707D1A9
:10CA440093E747002328F7D08357040293F707603E
:10CA5400B3E76701B3E75701C207C183010023802D
:10CA6400440123802401010001008346F400130CD7
:10CA7400B40493E60604A307D4008346B40493E6FF
:10CA84000602A305D4042310F402832707D1DD9BF7
:10CA94002328F7D07300501001000100130560042F
:10CAA400F9353000CE858146194502C423160100AC
:10CAB400212A114697450000938585E0280011231B
:10CAC4001DD5930770052380F40023802401010001
:10CAD400010083470C0093F7F70D2300FC0023802B
:10CAE4000400F2506254D2544259B259225A925A12
:10CAF400025BF24B624C21618280411106C6AD2D6E
:10CB04007530977001E0E780E003D5BF230304800C
:10CB140015472303E48001002302A4808280830755
:10CB24006480E3CE07FE230304808280830764804D
:10CB3400E3CE07FE03454480828083076480E3CE0E
:10CB440007FE2302A4808280411126C44AC24EC03B
:10CB540006C61377F50BAD47AA892E89954463065B
:10CB6400F70019456537653F8D444E854537FD59B6
:10CB7400FD1463983401B240A24412498249410130
:10CB84008280135509011375F50F453F2209CDB76E
:10CB9400011126CC06CEB704080051371545BD3720
:10CBA400713769372AC6A53F32459377150089EB5B
:10CBB400136515001375F50FF240E2440561828098
:10CBC400FD14E9FC0145CDBF397126DC4ADA4ED8A3
:10CBD40052D656D45AD25ED006DE62CE66CCB7E7C1
:10CBE40000E07D5783AA070022C603AA470023A0BA
:10CBF400E71823A2E718B71700401307700523802E
:10CC0400E704130780FA2380E70483C74704930BE0
:10CC140075FFB684E20793FBFB0F8546AA892E8B2A
:10CC2400328937240040E187015763FA76016308AB
:10CC3400D5008946130700026313D5000157D98F25
:10CC440093F7F70FB71C00402382FC04114723031A
:10CC5400E4801305F00F5D3D094CD135636D7C1103
:10CC6400B7050700DA9537870700795563F2E504BD
:10CC7400B3879500636EF702370B0800A94733EBBF
:10CC840065016399F90689E48144513D26850DA027
:10CC9400DA850945553D05090345F9FFFD14050BE2
:10CCA400693D81C49377FB0FFDF7DD3569FD7D5543
:10CCB400B7170040130770052380E704130780FAB1
:10CCC4002380E70403C74704418B2382E704F2501F
:10CCD400B7E700E023A0571123A24711E2543244DE
:10CCE4005259C259325AA25A125B825B724CE24CBC
:10CCF40021618280A5476395F90685691309F00FC0
:10CD0400B3069900B3742B01B6941349F9FFB374B5
:10CD14009900856B33796901416B9387F9FFB3F708
:10CD2400270199E363FC340193D94900C147E3E641
:10CD340037FF99BF0569C1697D19D9B71305800DFE
:10CD440063886901130500026384790113051008DF
:10CD5400CA85DD3B353D21DD4E99B3843441D9B7D5
:10CD6400DA852D45D533CA94E30099F205097D3B54
:10CD7400A30FA9FED5BF9387F9FF93F7F70F63615C
:10CD8400FC0C83C71C0413073008631FF704370720
:10CD94000800636BEB04B3079B00B706100063F550
:10CDA400D704334BEB0089476393F9068980D5494F
:10CDB400E38C04ECDA850945413B11090327C9FFDB
:10CDC40091472320E48003076480E34E07FE230396
:10CDD4003481FD17EDFBFD14110B81C49377FB0F18
:10CDE400E9FF7D3371F5E1B5B717004003C7570478
:10CDF400B70708001377070219E3B78707007955C7
:10CE0400E378FBEA33079B00E3FFE7F855B5854772
:10CE1400E382F9F2DA852D45053B9389F4FFE38536
:10CE240004E6293393F7390091EB83260480032722
:10CE3400090093074900E39AE6E43E89CE84F1BFF2
:10CE4400B5476396F9001305900BC93135BDB14759
:10CE54001305B00AE38BF9FE99476391F904B7050A
:10CE64000800B365BB002D45C53181448D4BA149F4
:10CE7400753963967401832704802320F90085049F
:10CE8400E39834FF8327048013172B0163550700AD
:10CE94002312F900D5BB2322F900FDB39D47639902
:10CEA400F90281451305B0044531BD44232009002E
:10CEB40023220900FD599D3993F77400CA9703C7CB
:10CEC4000700FD14398D2380A700E39634FF6DBB62
:10CED400A1476392F9046D398144630D0B008D47BA
:10CEE4009304C0036308FB009304000563048B01EF
:10CEF400930440041375C507E30895D819453931DF
:10CF040039390545213126850D3909453D314931E8
:10CF1400E31C05D669BB91476399F90013056006C4
:10CF2400F536F53E130590090DB7E38F09D4F15496
:10CF3400A9BB19CD91CD09CE81473387F50083462E
:10CF440007003307F50085072300D700E317F6FE33
:10CF5400828019C991C909CA910583A7C5FF110522
:10CF64007D16232EF5FEC5BF828001C919C62A96F7
:10CF74000505A30FB5FEE31DA6FE82808147330796
:10CF8400F5000307070019E33E8582808507C5BFC6
:10CF940001112E8626CAAA84131506019305F004EE
:10CFA400418122CC06CE32C6EF1040592A8401C5F5
:10CFB4003246A685BD3F2285F2406244D2440561D3
:10CFC4008280854715C18DC105C28147B306F5002E
:10CFD4003387F50083C60600034707006398E6001D
:10CFE4008507E315F6FE85473E8582808147EDBFC0
:10CFF4009307F6FFBE952A966313C5008280FD153C
:10D0040083C715000505A30FF5FEFDB7AA870145E3
:10D0140081CF09CE3E96850703C7F7FF6317B70094
:10D02400E39BC7FE05458280828001458280797139
:10D03400975700009387C71122D4804306D626D27F
:10D044004AD04ECE52CC56CA5AC85EC662C45DCCD3
:10D0540037C9C901814B175A0000130AEA139754C0
:10D0640000009384240F1309F937975A0000938A18
:10D07400EA08B709C0A8370B40578357240095E343
:10D084005C44639D0B00175700002323F70C032C0B
:10D09400C4002285EF10A057628499A823A6FB0040
:10D0A400FDB783270A008297838664011C4463DBEF
:10D0B40006063307F5406367E9089757000023A77E
:10D0C4000704835524000345040097E001E0E7804A
:10D0D40040A05C405844A9CF1444B69783866401A9
:10D0E40063C5060063E33701DA971CC4A28B3A8454
:10D0F40049F497570000938767009C4B094763786E
:10D10400F706F917175700002322F700B2502254EC
:10D1140092540259F249624AD24A424BB24B224CCF
:10D1240045618280E377F5F83387F9402A9761B740
:10D1340063970B009757000023ACE70089BF23A631
:10D14400EB00B1B7D85009CF63DF06003385A740A1
:10D1540083A70A016376F5009757000023A8A7FA6E
:10D16400A28B404471B7E3F3A7FECE97C5B7975798
:10D17400000023AD07F859BF411122C41754000021
:10D184001304C4FA1C4006C626C24AC091C782973B
:10D194009757000023AC07F85C4091C382971C406A
:10D1A4006391071C9757000083C7D716858B9DC7CB
:10D1B40097570000A3800716175700000347B715B9
:10D1C400954763FDE700EF0010379757000083C7CA
:10D1D4009714F5178A07A2979C4382971759000062
:10D1E400130909178347C900918B99C3EF1060286D
:10D1F4001C4491C3829797540000938424F598406B
:10D2040017560000034696EF9757000083C707EFB1
:10D2140093961700BA9683D60600D5CA975700008E
:10D2240083C7C7ED63EFC70A97570000238807EC4D
:10D234001C40639807129757000083C7F70D91CFDE
:10D244009757000083C7370D89EB97570000A385D4
:10D25400070C973003E0E780E0349757000093878A
:10D26400A7F39C43638F070EB707C0A817570000A6
:10D27400232EF7E86D3B975700009387A7EDDC5307
:10D28400EDC317570000130767E7184B97570000C3
:10D2940083C797ED6367F70C175700000347B70779
:10D2A400954763E0E70C8347C900918BDDEB904021
:10D2B4009756000083C696E463CBD70A2244B24053
:10D2C40092440249410117D301E06700A35D850739
:10D2D40093F7F70F975600002382F6E2E3E6C7F2CE
:10D2E40035BF86073E9783550700231007009757DD
:10D2F4000000239B07E4975700009387E7E29C43D1
:10D3040017550000034585DF13172500BA979C4382
:10D3140082979757000083D727E3175700000347E6
:10D32400E7DD93C7F7FF7D8D9317170098403E976D
:10D33400835707005D8D2310A7009757000083C70C
:10D34400E7DB91C78507175700002309F7DA17575A
:10D3540000000347A7DA9757000083C737DAE3755D
:10D36400F7ECB2402244924402494101828013976F
:10D3740017003297035707006DF7850735BFAD6770
:10D3840037C70040BD072326F7200F10000097572A
:10D3940000009387A7D6C84F83278726BD66BD069E
:10D3A40093C7F7FF99836A052326D7205D8D828072
:10D3B4004111B7170040985F3AC6945F3247E39C27
:10D3C400E6FE324541018280828003278511630095
:10D3D4000712411122C406C68347C5008345C5040C
:10D3E4002A8493F7C70F2306F50083469700035654
:10D3F400C70013958601618563F1C508635A050664
:10D404000345870093F6F607A304D700054693E681
:10D4140027006314C50093E617002306D4005C4379
:10D4240089075CC3A30AB400032504112E864C4368
:10D43400090501368327841103465401D44303D7D5
:10D44400C700B296118FD4C32396E7008947A30D72
:10D45400F400034744039757000083C7C7D0637899
:10D46400F7048347C40093E707012306F40081A06F
:10D4740093E717002306F40075B79376F60F635D00
:10D48400050203458700854513E627006314B500AC
:10D4940013E617002306C400A30AD400A30407005C
:10D4A4008547A30DF400832784119C43DDF3B24028
:10D4B400224401454101828093E717002306F400CA
:10D4C400A30AD400A3040700032504114C4309054F
:10D4D4008D348327841103465401D44303D7C700F2
:10D4E400B296118FD4C32396E7008D475DBF0545DF
:10D4F400828097570000938727E09C43411122C400
:10D5040006C6858B2A84C5EF4165130525F597D09A
:10D5140002E0E780801C45C58347A5002315F5007C
:10D5240083270412BDE72320A4122322A4128547D3
:10D534002310F40423200500834764015441231677
:10D54400F5000347D4002304E5000547A304E500E0
:10D55400175700001307C7DB184F138517021581EF
:10D564001C437D151375F50F9CC25C43DCC21C473C
:10D574009CC65C47DCC61C4B9CCA5C4BDCCA1C4F7B
:10D584009CCE5C4FDCCE19CD9386060213070702AE
:10D59400C1BF8327441288C3835704042322A412DF
:10D5A400850779B79757000083D7C7E385071757CF
:10D5B40000002319F7E2B2402244410182808347EC
:10D5C400C40023090400054593C747002306F4005B
:10D5D400DDB78347850193F7E70FD5EF83479501BF
:10D5E400DDEB034625018346C50009CA834545038F
:10D5F40017570000034737B763E7E50013F7060141
:10D6040041CF014709C6C18A0357651C81C68356A9
:10D61400A51C369751C31307C712175500000355AD
:10D6240065B0B335A70237460F004111130606242F
:10D63400814622C426C206C67D543305A70297D06C
:10D6440003E0E78080389757000083C737B2B3847C
:10D65400A70097570000938767D803A70709832774
:10D66400070963F387003E84184375FB975700004E
:10D67400938787B29C43829781476364A400B3076E
:10D68400A440B2402244B3B7970093C71700924412
:10D694003E854101828081473E858280797126D210
:10D6A40006D622D44AD04ECE52CC56CA5AC85EC6EA
:10D6B4008347350303447513AA843E941374F40F0B
:10D6C4009307400263F687001304B4FD1374F40F48
:10D6D40003AA841383AAC413A38B841222865285BB
:10D6E400D68597D003E0E780C028058915E503CBEC
:10D6F400D41201498149337B6403930B50024A8657
:10D704005285D68597D003E0E780A026058915C504
:10D71400639169031374F90F238B8412B25022545A
:10D7240092540259F249624AD24A424BB24B456181
:10D7340082808509E20993D989410509E31179FDBC
:10D74400E1BF832785090356E503797193D6070161
:10D75400BD8EC206C182358E13577640935756400C
:10D76400898B058B5D8F93573640918B5D8F9357D3
:10D774001640A18B5D8F93171600C18B5D8F931795
:10D78400360093F707025D8F931756009355860072
:10D7940093F707041E065D8F1376F60F518F93D708
:10D7A400554013D63540118A898BD18F13D67540D5
:10D7B400D18F13D61540218AD18F13961500418A33
:10D7C400D18F1396350013760602D18F1396550028
:10D7D400137606049E05D18F93F5F50FCD8FA2071E
:10D7E40045465D8F3307C70222D42A8426D252CC01
:10D7F40056CA032A8413832AC4135AC806D63697F2
:10D804004207418393577740135557400989858BC5
:10D81400C98F135537401189C98F13551740218972
:10D82400C98F131517004189C98F13153700137554
:10D834000502C98F13155700935587001375050406
:10D844001E07C98F1377F70FD98F13D5354013D718
:10D8540055401189098B498F13D57540498F13D5CC
:10D8640015402189498F139515004189498F1395D6
:10D87400350013750502498F13955500137505047A
:10D884009E05498F93F5F50F4D8F2207D98FB387E6
:10D89400C7024AD04ECE5EC662C4B697C207C183E1
:10D8A40013D7774013D557400989058B498F13D572
:10D8B40037401189498F13D517402189498F139512
:10D8C40017004189498F1395370013750502498F55
:10D8D4001395570093D58700137505049E07498F48
:10D8E40093F7F70FD98F13D5354013D755401189C6
:10D8F400098B498F13D57540498F13D5154021895C
:10D90400498F139515004189498F13953500137577
:10D914000502498F13955500137505049E05498F1B
:10D9240093F5F50F4D8F2207D98FB387C7021306DE
:10D9340050025285D685B697BD8E93940601C18058
:10D9440033F6C402137BF60F97D003E0E78060023E
:10D9540005890DED8347D41201498149B3849702A7
:10D96400130C5002C1804A865285D68597D003E0B5
:10D97400E78020000589937BF90F11C56386340382
:10D98400850993F9F90F0509E31F89FD230B641336
:10D99400B250225492540259F249624AD24A424B3A
:10D9A400B24B224C456182805E8BCDB701119757F3
:10D9B40000009387A7A222CC03A4470B26CA06CE55
:10D9C4002AC42EC6854419E40145F2406244D24477
:10D9D400056182808347910003471400858B6304AB
:10D9E400F7000044CDB719469305A10013052400A0
:10D9F400EFF02FDDE31795FE0545C1BF011122CCE1
:10DA0400175400001304849218402AC62EC432C24C
:10DA140006CE3C4B93F7F7F73CCB973003E0E78017
:10DA240020B51840975600009386868D3C4B93E7AB
:10DA340007083CCB9C423245A24523A0070003477C
:10DA440015000348250022074208429703480500B1
:10DA54004297034835006208429798D70347550018
:10DA6400034865002207420842970348450042974D
:10DA74000348750062084297D8D7034795000348C6
:10DA8400A5002207420842970348850042970348AD
:10DA9400B5006208429798DB0347D5000348E500C8
:10DAA4002207420842970348C5000345F500429700
:10DAB40062052A97D8DB03C7150003C52500220792
:10DAC40042052A9703C505002A9703C53500620558
:10DAD4002A9798CF03C7550003C56500220742055E
:10DAE4002A9703C545002A9703C5750062052A973E
:10DAF400D8CF03C7950003C5A500220742052A977E
:10DB040003C585002A9703C5B50062052A9798D3F3
:10DB140003C7D50003C5E500220742052A9703C5BC
:10DB2400C50083C5F5002A97E2052E97D8D3D843BC
:10DB3400759BD8C3D84313671700D8C3984313679A
:10DB4400170098C3124698425C43858BD1E71C4F5B
:10DB540001452300F6009C429C4FA183A300F600DC
:10DB64009C429C4FC1832301F6009C429C4FE1835D
:10DB7400A301F6009C42D84F2302E600D84F21832C
:10DB8400A302E600D84F41832303E600D84F618304
:10DB9400A303E60098532304E60098532183A304C7
:10DBA400E600985341832305E60098536183A30557
:10DBB400E600D8532306E600D8532183A306E600E3
:10DBC400D85341832307E600DC53E183A307F6001F
:10DBD400F2406244056182800100B5B71747000036
:10DBE400130747721443411122C49C5E4AC006C6FF
:10DBF400998326C2858B3A8417490000130949701A
:10DC0400D1CB9C5E974400009384847093F7F7F91A
:10DC14009CDE174700000347077093070008631B47
:10DC2400F700832709009C4393F707041747000074
:10DC34002303F76E83C7040093F707049DC3974734
:10DC44000000938767559C4382979747000023A958
:10DC5400A76C83C7040093F7F70B17470000230949
:10DC6400F76A83C7440093F707048DE7854717478E
:10DC74000000A301F76A974700009387276B9C4332
:10DC8400096798C7130700FC974600002384E668D9
:10DC9400D844F8D31C40985F1183058B09CB985F57
:10DCA4003D9B98DF0547974600002385E666985F0D
:10DCB4001D83058B11CB985F1377F7F798DF8547A2
:10DCC400174700002308F76483270900D843058316
:10DCD400058B19C7D843759BD8C3D843799BD8C340
:10DCE400B24022449244024941018280397106DEE5
:10DCF40016DC1ADA1ED82AD62ED432D236D03ACE30
:10DD04003ECC42CA46C872C676C47AC27EC0F935D1
:10DD1400F250E2525253C2533255A2551256825611
:10DD24007247E2475248C248324EA24E124F824FC7
:10DD3400216173002030974700009387275F944345
:10DD4400974700009387C75C03C70700058B11CB77
:10DD5400974700002380075C97470000A38C075A6D
:10DD6400828003C71700058B65F7F85271FF83C7DC
:10DD74005700DDB7174800001308C85803270800E8
:10DD84001C5F9583858BD1E709C61C5BBD8323008B
:10DD9400F60085CA83270800985B460793576701F6
:10DDA4006356070093E707C0C207C18303970600C1
:10DDB400C207C18709C7BA970947B3C7E7022390C7
:10DDC400F60085CD834715008DCB9746000083C6AA
:10DDD400865493F606041387970089478DCA3A95AB
:10DDE40003470500854699471376F7066311D60263
:10DDF40062076187B947634C0700832708009C5F6B
:10DE0400ED838D8B17470000A309F75081473E85AA
:10DE140082808547EDBF411122C406C61744000025
:10DE24001304C450184049E9AE877453FDFE3E857F
:10DE3400B28597470000238E074C972003E0E780C4
:10DE44002049974700009387E74B9C43B70680001F
:10DE54009843558F98C3D857719BD8D797470000DC
:10DE6400A38A074A97470000A384074A1C4009472E
:10DE740098C3B7F700E003A707D16D9B23A8E7D0A9
:10DE840003A707D15D9B23A8E7D07300501014406B
:10DE9400174700001307C74783472700858B89EB83
:10DEA40083473700858BD9C79747000023840746EB
:10DEB400B2402244410182808D476310F5029747A6
:10DEC4000000938727449C43B70680009843558FEE
:10DED40098C3D857719BD8D75DBF8547E319F5FA26
:10DEE400B567BD075CC70F1000001C4009670946F1
:10DEF40098C7130700F897460000238DE64017479C
:10DF04000000130727401443984231830D8B631993
:10DF1400C7001307E043F8D33D673D07D8C785BF63
:10DF2400984231830D8B01E713076019EDB713078E
:10DF3400E01BD5B7FC52ADF3A5BF5D7152DC174AA7
:10DF44000000130A2A3C03270A0086C6A2C4A6C2FC
:10DF5400CAC04EDE1C43974900009389E941174922
:10DF640000001309A93C93F7F7E793E707081CC3DC
:10DF740083A609003707CEFF7D179C46130680024F
:10DF84002A84F98F9CC683270900130700082800F8
:10DF9400B8CBAE8493051008EFE03FFD972003E073
:10DFA400E780005D972003E0E780006A83270A008A
:10DFB4009376F41F370FFCFF23A40700984B4E8879
:10DFC400CA881367F70398CBF84F130510F8D28566
:10DFD400137707E0558FF8CF9843F576FD16758FC4
:10DFE40098C39843B7063300B70204001377F7E7E2
:10DFF40098C398439303401F7D1F1377F7E7136774
:10E00400071098C303A70900930F800285491C4792
:10E01400D58F1CC7832709001307900D3400B8CB94
:10E02400114901471353370026938347030013769E
:10E034007700B3D7C740858BDDCF9C41832E080082
:10E04400239C07042390070603AECE02137EDEFF53
:10E0540023A6CE0383AE0700137EF70793FE0EF8C4
:10E0640033EECE0123A0C70103AE4702336E5E0038
:10E0740023A2C70383AE0800014E23A27E0603DA5F
:10E08400070663074E0303AE0703038A0600135E05
:10E09400FE00620E135E8E416358CA0103AE07038D
:10E0A400135EFE002380C60103DE0706137EFE0F07
:10E0B40003AA4E0663060A0003DA8705E37F49FBD9
:10E0C40003AE4702337EEE0123A2C7038387060013
:10E0D400635CF400034E03003396C9001346F6FF55
:10E0E4003376C6012300C3003E8663D3A7002A8685
:10E0F40013158601618505071377F70F8506E3136A
:10E10400F7F3B640264496440649F259625A6161CF
:10E11400828097460000938666219C42D847131656
:10E124001701635506029847131617016350060238
:10E134007D57B8D717470000130747FC584F05070A
:10E1440017460000232AE6FC116798C798470D83F9
:10E15400058B1DC3174700000347A71B1367170050
:10E16400174600002307E61A130700F817460000B5
:10E174002302E61A214798C79847058B09CF17470A
:10E1840000000347F7181367170017460000A301A0
:10E19400E618054798C798470983058B09E7984708
:10E1A4000583058B31CF98471746000013064616A2
:10E1B40017450000130505150983058B6303071034
:10E1C4001841184331830D8B75EBAC4B184E93F506
:10E1D400050203471700CDCD79EF13077006D8CF9A
:10E1E4000347060013671700174600002302E612D0
:10E1F400114798C718415C57F19B93E717005CD708
:10E204009C4298479316370163D60602974600004E
:10E2140083C60624C18A174700001307271CC5CEEE
:10E224000347470713670702974600002382E62245
:10E23400056798C798479316270163D106021747C5
:10E2440000000347270D62076187635707000547EE
:10E25400974600002380E60C096798C798479316F1
:10E26400070163D606029746000083C6761E858A98
:10E274001747000013078716ADCE034757071367E8
:10E28400270097460000A385E61C216798C7828073
:10E2940029D785456315B7001307B00689B78945A3
:10E2A4006315B7001307F0061DBF8D456315B7004E
:10E2B400130730072DB71307500715B71307600767
:10E2C40039BF034736001367170017460000A3023F
:10E2D400E604094739BF834647070946BD8A638870
:10E2E400C600034747078D463D8BE313D7F4114718
:10E2F40025BF83465707918AC9DA0347570713672F
:10E30400870041B7397106DE16DC1ADA1ED82AD620
:10E314002ED432D236D03ACE3ECC42CA46C872C689
:10E3240076C47AC27EC0F533F250E2525253C253DD
:10E334003255A255125682567247E2475248C24895
:10E34400324EA24E124F824F216173002030174784
:10E3540000001307E7FD8346B7019747000083C712
:10E36400F7FF4C4BB697FD8B33D7F500974600006B
:10E37400A380F6FC97460000A382F6FE058B15EFFA
:10E38400174700000347D7FDB3F7E702814601476B
:10E394001305000233D6E500058A1378F70F19CA6E
:10E3A4006397D70097470000A38407F98280850606
:10E3B40093F6F60F0507E31FA7FC8280974700003A
:10E3C400938787DD9C43011122CC4EC606CE26CA14
:10E3D4004AC852C456C2829797470000938747F7AA
:10E3E400804781496305A406BE849747000093874C
:10E3F40067D6038767013E8963550706018D135469
:10E4040055009747000083C747F49379F501636D7E
:10E41400F402370AC0A8B70A4057153F9C449746F0
:10E42400000083C686F2139756003E97830769015E
:10E43400158C63C50700636347015697974700002F
:10E4440023ACE7F0E37BD4FC1604B3693401F24057
:10E4540062444E85D2444249B249224A924A0561F5
:10E464008280E37D85F8B707C0A83384874022956E
:10E4740079B797470000938727D29C43411122C460
:10E4840006C626C2829797470000938767EC8047A9
:10E494006309A406BE84974700009387A7CB8387AC
:10E4A400670163D80704018D135455009747000092
:10E4B40083C7A7E96367F404593D9844974700006C
:10E4C40083C7A7E89396570036971D8C974600009C
:10E4D40023A4E6E8E372F4FE2244B24092441745D2
:10E4E40000000345F5E481454101172303E067007B
:10E4F400C35CE37A85FAB707C0A8338487402295C2
:10E5040065B7B2402244924441018280974700009B
:10E51400938787E69843B75702009387079F83261C
:10E5240007091396560063580600832607091396B5
:10E53400660063440600FD17FDF3828071C5AA8757
:10E544000145E9C58D07C207C183F19BC207C18399
:10E5540013074003636FF702174700001307C7E769
:10E564000843174700001307A7E614436398A6025D
:10E5740017470000130707BE185B014541CB411143
:10E58400C20706C60545DD8D0297B240014541012B
:10E594008280174700001307E7E3D9B703576500E4
:10E5A40035E303574500636FF704B306F74021468C
:10E5B400637CD60203280500938687001D8FAA96E4
:10E5C4006117174600000356C6B32392E60023A042
:10E5D40006012393060014C12312F500130786FFD6
:10E5E40097460000239FE6B02313B500974500002B
:10E5F40083D525B1B387F540174700002313F7B03F
:10E604002105828008419DB70145828082800DC129
:10E6140097470000938747DC03A307009747000050
:10E62400938707DB83A8070081469A8763E3170172
:10E63400828003A80700636DF50A636BA80A138739
:10E644008700E367E5FE03D66700216705076317C4
:10E65400E60003C7019705072388E1969745000064
:10E664009385C5A903D6470003D765002393070004
:10E67400329742074183174500002314E5A8638AB3
:10E684006702174500001305E5D408416303F5024A
:10E6940003D5660019ED83D7460023A006012107A0
:10E6A4003E9621062392C60097470000239BE7A4C9
:10E6B400B6879843E30E17F797460000938686D1F2
:10E6C4009442E307D7F683566700BDF283D647002A
:10E6D400035647001843A106B2962392D70098C365
:10E6E40083D76500A10717470000231CF7A0828089
:10E6F400BE86C28725BF011197470000938707CEC6
:10E7040022CC03A4C70B26CA4AC84EC606CEAA8486
:10E7140013092500854915C083C714000347340035
:10E72400858B6304F700405CFDB7194693054400EC
:10E734004A85EFE01F89E31835FF2285F2406244E1
:10E74400D2444249B2490561828041119747000091
:10E754009387C7C822C403A4C70B26C24AC006C6EF
:10E7640093042500054901E82285B24022449244DD
:10E77400024941018280A6851305A40297C003E0E3
:10E78400E78060D4E30225FF405CF1BF4111974765
:10E7940000009387A7C422C403A4C70B26C24AC09F
:10E7A40006C693042500054901E82285B2402244A7
:10E7B4009244024941018280A6851305A40197C0B1
:10E7C40003E0E78040D0E30225FF405CF1BF000096
:10E7D8009751FF1F938101B717A1FF1F13010182F2
:10E7E80017E5FFFF1305C5819725FF1F9385058151
:10E7F8001746FF1F130686FD63FAC500832205002E
:10E8080023A0550011059105E3EAC5FE17C50300CD
:10E81800130505E69745FF1F938545FB138601867B
:10E8280063FAC5008322050023A055001105910550
:10E83800E3EAC5FE138501869785FF1F938585CB7F
:10E848006377B500232005001105E36DB5FEFD4291
:10E85800739002BC8D4273904280B722000093826D
:10E86800828873A002309712FF1F9382227993E265
:10E8780032007390523097F20000938262107390C6
:10E888001234730020303D432A876373C3029377A1
:10E89800F700BDEFADE5937606FF3D8ABA960CC347
:10E8A8004CC30CC74CC74107E36BD7FE11E282800B
:10E8B800B306C3408A069702000096966780A600B2
:10E8C8002307B700A306B7002306B700A305B700C0
:10E8D8002305B700A304B7002304B700A303B700B8
:10E8E8002303B700A302B7002302B700A301B700B0
:10E8F8002301B700A300B7002300B700828093F577
:10E90800F50F93968500D58D93960501D58D61B742
:10E91800939627009702000096968682E78086FAEB
:10E928009680C1171D8F3E96E374C3F8A5B7336769
:10E93800B500FD530D8B79E7B7877F7F9387F7F78E
:10E9480010419441B372F6003363F600BE92B3E20D
:10E9580062006397720C6318D6065041D441B372B3
:10E96800F6003363F600BE92B3E262006398720A5F
:10E97800631BD60410459445B372F6003363F60062
:10E98800BE92B3E262006391720A631ED6025045DA
:10E99800D445B372F6003363F600BE92B3E2620068
:10E9A800639A72086311D60210499449B372F6004B
:10E9B8003363F600BE92B3E26200639372085105B6
:10E9C800D105E30FD6F61317060193970601631CCA
:10E9D800F7001357060193D706013305F7409375DF
:10E9E800F50F91E982804183C1833305F740937520
:10E9F800F50F91E182801377F70F93F7F70F33053F
:10EA0800F74082800346050083C605000505850595
:10EA18006313D60065FA3305D64082801105910547
:10EA2800E312D6FE014582802105A105E31CD6FC30
:10EA3800014582803105B105E316D6FC0145828087
:10EA48004105C105E310D6FC014582800147114606
:10EA58004148B386E5008147B308F50083C808003C
:10EA68008507C10623A816FFE398C7FE11071105FD
:10EA7800E31107FF8280935785019CC19357054195
:10EA880093F7F70FDCC19357854093F7F70F13758A
:10EA9800F50F9CC5C8C582801C41411113070501AB
:10EAA8003EC05C413EC21C453EC45C453EC6939791
:10EAB80025001408B69783A707FF85051105232E9F
:10EAC800F5FE8D89E315E5FE41018280397122DC6E
:10EAD80041661384419E06DE26DA4AD84ED652D4C1
:10EAE80056D25AD05ECE93050501A2863708FF009C
:10EAF8007D1683070500034735001105E207D98F06
:10EB08000307D5FF9106420733770701D98F03071B
:10EB1800E5FF2207718FD98F23AEF6FEE39BA5FC94
:10EB280081499144930A0101177B0300130B4BF0B1
:10EB3800977B0300938B4BED130AC00293F73400C5
:10EB4800032904004844BDE78A85353785450A8589
:10EB5800A1370A871C43110793F6F70093F7070FAD
:10EB6800DA97B69783C70700232EF7FEE394EAFEE9
:10EB7800024592476205C2075D8DB2475D8DA24787
:10EB8800A2075D8D93972900DE979C4385093D8DEB
:10EB98003345250108C885041104E39144FBF2506C
:10EBA8006254D2544259B259225A925A025BF24BD9
:10EBB800216182803345A90008C8F1BF797122D448
:10EBC80026D24AD04ECE52CC56CA06D62A8A939915
:10EBD80045000144938A419E13090101C144B307CA
:10EBE8003401D69788438A85793533078A008A871E
:10EBF8001443904391074107B18E2328D7FEE39928
:10EC080027FF1104E31D94FCB25022549254025978
:10EC1800F249624AD24A45618280397122DC130482
:10EC2800050106DE22878147C1460C433306F10001
:10EC380011070CC24C4710083E960CC24C4F1010DE
:10EC48003E960CC29107E392D7FE85450A85A93501
:10EC58008945080891358D4508103D3D8147414754
:10EC6800B306F10094421104232ED4FE1408BE9674
:10EC7800944254C41410BE969442910754CCE39124
:10EC8800E7FEF250625421618280060593770510F1
:10EC980089C71375F50F1345B5018280411106C662
:10ECA800ED37B2404101D5B781471148C148338695
:10ECB800F500B306F500014703AE06003303E6008E
:10ECC80005072300C301C106E31807FF9107E39076
:10ECD80017FF82809306050117760300130646E5A1
:10ECE80013050505138706FF1C43110793F5F70065
:10ECF80093F7070FB297AE9783C70700232EF7FE47
:10ED0800E394E6FEC106E31FD5FC82801C41411155
:10ED1800FD563EC05C413EC21C453EC45C453EC6F5
:10ED28008D47B385B7409307C50013972500100892
:10ED38003297032707FFFD1598C36393D5008D45C8
:10ED48001387C7FF6314F50041018280BA87F1BFBA
:10ED5800397122DC1304050106DE22878147C1468A
:10ED68000C433306F10011070CC24C4710083E96BD
:10ED78000CC24C4F10103E960CC29107E392D7FE7E
:10ED880085450A8561378945080849378D45081042
:10ED9800B53F81474147B306F10094421104232E41
:10EDA800D4FE1408BE96944254C41410BE969442DD
:10EDB800910754CCE391E7FEF250625421618280BE
:10EDC8009306050117760300130686C61305050585
:10EDD800138706FF1C43110793F5F70093F7070FF6
:10EDE800B297AE9783C70700232EF7FEE394E6FE9B
:10EDF800C106E31FD5FC8280411122C406C626C283
:10EE080085472E846301F50289476318F50022447B
:10EE1800B24092442E8541018DBD8D47631BF5009C
:10EE28002E85A535298C2285B24022449244410181
:10EE38008280A5476315F5002E858D35DDB7AD4772
:10EE4800631AF5002E85993D8935AA842285353DBA
:10EE5800258DC9BFB5476316F5002E858135AA846F
:10EE6800FDB7B947E311F5FC2E850D3DAA84313D68
:10EE7800A98C2285193D3344950075B7597186D6FA
:10EE8800A2D4A6D2CAD0CECED2CCD6CADAC8DEC6D2
:10EE9800E2C4E6C2930605040A87AA879043C1071D
:10EEA80041072328C7FE03A647FF232AC7FE03A658
:10EEB80087FF232CC7FE03A6C7FF232EC7FEE39FA9
:10EEC800D7FC177903001309A9DA130A0501930976
:10EED8000505832C0900032C4900832B8900032B8B
:10EEE800C900930A0AFF8A848C406685910A2937EB
:10EEF8008C482A84628509378C50298C5E85ED3DC3
:10EF08008C58298C5A85CD3D218D23AEAAFE9104BB
:10EF1800E31C5AFD410A4109E39D49FBB6502654BA
:10EF280096540659F649664AD64A464BB64B264C7D
:10EF3800964C656182806382051493F7F500639EA1
:10EF480007121571D6C3AA8A3285A2CDA6CB86CF61
:10EF5800CAC9CEC7D2C5DAC15EDF62DD66DB6AD94F
:10EF68006ED73284AE84EF30A34AC147631EF500E2
:10EF78002285A93E0149130A0106977B0300938B5A
:10EF88002BCF294C63419902FE406E44DE444E4922
:10EF9800BE492E4A9E4A0E4BFA5B6A5CDA5C4A5DB1
:10EFA800BA5D2D618280338B2A010C105A85793C19
:10EFB8008145081021318549081019350810B139E3
:10EFC8001C10D2863E8710434107C10623A8C6FEFF
:10EFD800032647FF23AAC6FE032687FF23ACC6FEE7
:10EFE8000326C7FF23AEC6FEE31FEAFC177703001C
:10EFF800130707C403280700832D4700032D870044
:10F00800832CC7005284138607010C4042853ECEEC
:10F018003ACC32CA42C8CD330C482AC66E85E93B81
:10F02800B2460C501104A98E6A8536C6F133B24631
:10F038004C54A98E668536C6C133B246F24752464D
:10F04800358D88C3910742486247E310F6FC4107B3
:10F05800B287E391EBFACE85081085098536E39DE2
:10F0680089F50810B13B08104D3EA9450810B9367E
:10F07800DA8508101539410931B78280638D05108A
:10F0880093F7F500639907105171CECFAA8932859D
:10F09800A2D5A6D386D7CAD1D2CDD6CBDAC9DEC7F8
:10F0A8003284AE84EF30C336C1476319F500228538
:10F0B800313C0149138B419E634D9900BE502E543B
:10F0C8009E540E59FE496E4ADE4A4E4BBE4B6D6148
:10F0D8008280338A29018C0052858D3AA94588009F
:10F0E800F13C138441A7C14A930B00048800DD3624
:10F0F8008800B9398800593308408A85AD3A4840B4
:10F108000C08953A08440C10BD3248440C18A53236
:10F1180018018147B306F100944241072328D7FE1E
:10F128001408BE969442232AD7FE1410BE96944221
:10F13800232CD7FE1418BE9694429107232ED7FE8F
:10F14800E39A57FD08011D3B01479C003385E70002
:10F158001C01B305F70081473306F5003388F50035
:10F168001442032808009107B3C6060114C2E395A8
:10F1780057FF4107E31B77FD4114E31964F7880043
:10F18800913E8800F136814588000D3CD285880083
:10F19800213E410915B782809307F00F6385F60A6F
:10F1A8002D71232A911023282111B284232631118D
:10F1B800130600102E89AA89930530020A85232E8A
:10F1C8001110232C81103684EFF0EFEBA2852685F1
:10F1D800EFB0E03113178500935785003365F700CA
:10F1E8002310A100A685228613053100930434005C
:10F1F8002301810093F4F40FEF20634A93F6F4009F
:10F2080089C64D04158C9374F40F1C02A697A68525
:10F218000A8517760300130666AB238007F0213BA7
:10F2280026868A854E85EF20834723009900832010
:10F23800C111032481118324411103290111832958
:10F24800C110156182808280797122D432844AD0BB
:10F258004ECE2A89AE892285B68517760300130615
:10F26800E6A626D252CC06D636C6093DB246130AC1
:10F2780034005285A2962380060083440400834705
:10F28800140083452400A204DD8CEFB04026639A65
:10F29800A40203462400D2854A852380C900EF30A2
:10F2A800031B254597750300938585A0EFB0E027DC
:10F2B8000545B250225492540259F249624A4561B6
:10F2C80082802380090025452300090097750300E3
:10F2D8009385C59EEFB060250145E1BF411106C683
:10F2E800EF70E015B240AA8617770300130707A44A
:10F2F8001756FF1F130606BA97750300938545A492
:10F30800114541016FB02037130101DB232481240B
:10F31800232021252326112423229124232E31233F
:10F32800232C4123232A5123232861230347050043
:10F33800930710042A892E84631CF7680347150075
:10F34800930740056316F768034725009307E00510
:10F358006310F7682E86AA852545EFB06027130647
:10F36800D003A2854A85EFB0E03DAA84635A050020
:10F378003546A2854A85EFB0E03CAA846344050877
:10F388009389D4FF9307100363CE37074E869305FE
:10F3980039002808EF30A30B1C1CBE99177A03000C
:10F3A800130A8AC4238409DED28A81494D4B8325F6
:10F3B8004A002808EFB0C0320DC18E09D69983D70C
:10F3C80009004947636FF700177703001307479150
:10F3D8008A07BA979C43BA9782878509210AE398D6
:10F3E80069FD97750300938565BFCDA89305F4FF64
:10F3F800858D13851400C20581460146C1814A9551
:10F40800EF1010798320C12403248124832441240C
:10F41800032901248329C123032A8123832A412321
:10F42800032B01231301012582801306F4FF058EA7
:10F438009385140042064182CA95E800EFB0E0586F
:10F448001305D104EF20D37C93150501C181130561
:10F45800D104EFB00064977503009385A58F130559
:10F46800D104EFB0E02719CD977503009385058F78
:10F478000545EFB0800B1755FF1F0345B539EF4021
:10F48800300F49B7977503009385858E1305D1040E
:10F49800EFB0002519CD977503009385E58D0545D7
:10F4A800EFB0A0081755FF1F0345D536EF40100FE2
:10F4B80091BF977503009385258D1305D104EFB08F
:10F4C80020220DC1371700408327C70AA166977508
:10F4D80003009385E58BD58F2326F70A2545EFB0E2
:10F4E800C0040DB7977503009385458B1305D104A8
:10F4F800EFB0001F11CD371700408327870AA16698
:10F50800977503009385058AD58F2324F70AF9B7E1
:10F5180097750300938585891305D104EFB0401CC6
:10F5280011CD371700408327C70A896697750300EE
:10F5380093858588D58F2326F70A4DB797750300DD
:10F54800938585881305D104EFB0801911CD37173D
:10F5580000408327870A8966977503009385858706
:10F56800D58F2324F70A9DBF977503009385858758
:10F578001305D104EFB0C01697750300938545872E
:10F5880031FD97750300938565871305D104EFB0A6
:10F598002015977503009385258729F19775030032
:10F5A800938545871305D104EFB0801301C5EF603B
:10F5B800A00489BD97750300938505861305D104BA
:10F5C800EFB0001211C59757FF1F23A707261DBDCF
:10F5D80097750300938505851305D104EFB0401096
:10F5E80001C5EF50203239BD9775030093854584D6
:10F5F8001305D104EFB0C00E01C5EF50003119B5A5
:10F6080097750300938585831305D104EFB0400DEA
:10F6180001C5EF50C02EFDB3977503009385C582D1
:10F628001305D104EFB0C00B01C5EF80404FD9BB23
:10F63800977503009385C5811305D104EFB0400A7F
:10F6480009C50545EF70104D75BB97750300938587
:10F65800A5801305D104EFB0A00819C10145DDB795
:10F66800976503009385C57F1305D104EFB0400764
:10F6780011C9371700408327C70A8566D58F232607
:10F68800F70A49B3976503009385057E1305D104EE
:10F69800EFB0000511C9371700408327870A856630
:10F6A800D58F2324F70AB9BB976503009385457C5A
:10F6B8001305D104EFB0C00209CD7166976600004A
:10F6C800938646111306062085450D45EF70404A7E
:10F6D80015BB976503009385E5791305D104EFB051
:10F6E800200019C571668146130606208145F1BFC1
:10F6F80097650300938545781305D104EFA0507EE4
:10F7080011C913059108EF1053771375F50FEF50D2
:10F71800801DCDB90346D104A547130606FD13760F
:10F72800F60FE3E1C7CE9757FF1FA38DC70E976566
:10F7380003009385A574EFA01074E9B11306F4FFD4
:10F74800058E138514004206418297750300938540
:10F7580065134A95EFB0800C1754FF1F1304840AF1
:10F768001DC50545EF001047976503009385457251
:10F778001145EFA0905B83570400414593E71700BC
:10F788001757FF1F2310F708EFB0207CA5B997651E
:10F7980003009385A5701145EFA030597D55EFB052
:10F7A800E07A83570400F99B1757FF1F231CF704BF
:10F7B80091B92D3681B91306F4FF058E138514000F
:10F7C80042064182977503009385C50B4A95EFB0B1
:10F7D800E0041754FF1F1304E40229C183570400EF
:10F7E800976503009385456CE80093E71700175762
:10F7F800FF1F2319F700EF209340E800EF20534143
:10F8080013160501EC00418213854159EF70606CB5
:10F81800976503009385056B1145D1B19765030082
:10F828009385056BE800EF20933DE800EF20533EF9
:10F8380013160501EC00418213854159EF70606988
:10F8480083570400976503009385456AF99B17570A
:10F85800FF1F2319F7FAC9B7EF60407E9757FF1FBC
:10F86800938747FAE847EF103338AE862A869765BC
:10F878000300938565681145EFA0F05F61B6EF401E
:10F88800C06449B61776030013064600976503005F
:10F8980093854567114545B5EF60903E9765030030
:10F8A8009385056735F99765030093856567ADB757
:10F8B8003545EF80800CAA84EF1013332A86AE8674
:10F8C8002545976503009385E566EFA0D05A9767AD
:10F8D80003009387E7478843A6851744FF1F13044F
:10F8E800A473EF1003462320A422EF60B03F032542
:10F8F8000422EF10732FAE862A869765030093853E
:10F90800256495BF81450D45EF40B06AEF607032C0
:10F918002A869765030093856565ADBF81452D45AA
:10F92800EF403069814513055004EF4090689765B2
:10F9380003009385A5643145EF40B067EF60D02F91
:10F948002AC6EF603030B2462A871746FF1F1306D3
:10F958006654976503009385A5621145EFA0B051E1
:10F9680055B41757FF1F0357C78C9746FF1F938639
:10F97800B6741746FF1F1306E65197650300938573
:10F988006562E1BF85471757FF1F230DF78AEF60B0
:10F9980070359765030093852562BDBD1757FF1F16
:10F9A8000347478A85479765030093856561E31593
:10F9B800F7E6C5B79757FF1F9387C7E4A847EF1027
:10F9C800B322AE862A86976503009385E55F65B501
:10F9D8000146A2854A85EF40F03D2DB4411122C46D
:10F9E80021649305048099460146254506C697106B
:10F9F800FF1FE780201D930504802244B2409946EA
:10FA080013860186294541011713FF1F6700831BD1
:10FA180099E10145828075DD011152C403DA4186FE
:10FA280026CA93548A008504A204C204C18056C21F
:10FA3800B38A4441C20A22CC4AC82E862E842A8917
:10FA4800976503009385057E254593DA0A014EC61E
:10FA580006CE93890186EFA0104263ED8A0883D50C
:10FA6800418693F7F50FB1CF8D6783D5418693878C
:10FA78000780A2864A86BE9529459710FF1FE78012
:10FA880060141375F50F29ED83D749001566A29701
:10FA98002392F18603D7418683D721866309F7002D
:10FAA80063F3E700B297998F1396070141822545C2
:10FAB8009765030093858578EFA0F03B1375F40FE5
:10FAC8000DA08D6793870780930600100146BE95A9
:10FAD80025459710FF1FE780E00E1375F50F49D5F0
:10FAE8000145F2406244D2444249B249224A924A0C
:10FAF80005618280B3079440D297C207C183A1836E
:10FB080003C74900850793F7F70F9396870011EB12
:10FB18009386170093740AF0A206C204C206C18035
:10FB2800C18283D7218663F6F40033879600E3C940
:10FB3800E7FA0D6A130A0A800146B3854401254590
:10FB48009710FF1FE78000081375F50F51F983D54B
:10FB58004186A2864A86D29505B7411122C41384EC
:10FB6800018622858145194606C69710FF1FE78042
:10FB7800803F9307B0FA2300F4008D352244B24049
:10FB88009765030093858562254541016FA0F019AB
:10FB9800A1654111994613860186938505802D45F7
:10FBA80006C69710FF1FE780E00103C70186930789
:10FBB800B00A6303F7005537B24083D6418603D6AF
:10FBC8002186976503009385255F254541016FA030
:10FBD800902A83D741A90145638C071003D561A9F1
:10FBE8006366F50023AA01A8014582803385A740F2
:10FBF800D1473355F5021375F50F01E5239A01A88E
:10FC08008280130101BD232481422326114223222D
:10FC1800914223202143232E3141232C4141232A81
:10FC2800514195471374F50F63F3A70015442286D5
:10FC380097650300938545622545EFA0D0230149C8
:10FC48008144938981A9514AA14A9377F90F03D531
:10FC580061A91747FF1F0347B75263E98704D147D4
:10FC68003304F4022A94239B81A8A147631CF70656
:10FC7800A6850808EF30E03F03D761A983D741A9DB
:10FC880005456364F70023AA01A88320C142032421
:10FC9800814283244142032901428329C141032A25
:10FCA8008141832A4141130101438280B3074903FB
:10FCB8001408AA97CE9733859600631E5701BE8510
:10FCC800EF30A05A2317A1008357E1000509BE941D
:10FCD800C204C1809DBFAA851306E1003E85EF805E
:10FCE800F02FDDB726860C080145EF50D00769B71D
:10FCF8008280011106CE22CC26CA4AC84EC691E996
:10FD080001442285F2406244D2444249B249056125
:10FD18008280AA8975D583D7418603D621862E8409
:10FD28009564638AC7006374F60015673A961D8E5A
:10FD380093140601C18026869765030093850544C0
:10FD48002545EFA05013938714F06356F4009307EA
:10FD5800F00F63EA9700976503009385A54325454F
:10FD6800EFA0701171BF83D44186338784009567F3
:10FD780063C7E700A2854E8561398D3159B715698A
:10FD880033099940420913590901CA854E854931F9
:10FD980025D9ED75A695A295C20523920186C18144
:10FDA80033852901D1BF83D641A981EA976503002C
:10FDB8009385C54425456FA0407703D661A94111B5
:10FDC800918E9765030093856544254506C6EFA087
:10FDD800900A138741A98355070083D761A9138522
:10FDE80081A99D8DC2053E95C1812137B24023AAC4
:10FDF80001A841018280411183D741A922C426C2AA
:10FE080006C6AE971307401FAA842E84635AF700CC
:10FE1800593F976503009385253C2545EFA0E07081
:10FE280083D741A9138581A92286A6853E95EF101F
:10FE3800130703D641A9229642062244B2409244AF
:10FE48004182239AC1A8976503009385653A2545A1
:10FE580041016FA05002011126CA06CE22CC4AC821
:10FE68004EC652C456C2814459C1D1C183D72186D6
:10FE780003D44186638D870663F587081D8C420489
:10FE88004180AE892A892286976503009385852B50
:10FE98000145EFA0407EA28463F38900CE84C204AA
:10FEA8000D6A83D7218603D74186C180938A01864C
:10FEB800130A0A8063FAE704A6864A86B3854701CF
:10FEC8002D459710FF1FE780E0CF83D72A00A6971C
:10FED8002391F186EFF09FB083D6418603D6218621
:10FEE80097650300938545272545EFA0C078F24024
:10FEF800624426854249D244B249224A924A05615F
:10FF0800828015673A949DBF15671D8FB385470199
:10FF180063D5E400A6864A8665B79569B389F94032
:10FF28006D743E94C20993D909012694CE864A86F7
:10FF380042042D459710FF1FE780C0C84180A28664
:10FF480033063901D2852D45239101869710FF1F6D
:10FF5800E78040C783D72A003E94239181869DBFBE
:10FF6800397106DE22DC26DA4AD84ED652D456D269
:10FF78005AD05ECE62CCE9C9328455CA368CE9C6FD
:10FF8800BA8B79C32A89AE8A2300AC00854481499B
:10FF9800114B330634416353CB001146137AF60FE5
:10FFA8005286B3853A01480002C2EF10436F0347F7
:10FFB80051008347610003467100834641004A9718
:10FFC800CA974A96050789070D06CA962307E100CE
:10FFD800A306F100A307D1002306C10078008147DA
:10FFE80003460700B306F9008507B18E2300D70042
:08FFF80093F7F70F0507E395ED
:020000021000EC
:1000000067FF8357C1000357E100D29933059C0075
:10001000B98F2316F100B24711462C00910493F9D1
:10002000F90F3EC493F4F40FEF10E367E3E789F6AA
:1000300023809B0005442285F2506254D2544259D9
:10004000B259225A925A025BF24B624C2161828071
:100050000144D5B71D7186CEA2CCA6CACAC8CEC6E9
:10006000D2C4D6C2DAC05EDE62DC66DA6AD86ED688
:100070007DC52E84E9C532897DC2368CEDC2834DA3
:100080000500AA84814C054D9149138A3D00938A4D
:100090001D00138B2D00930B00103306A44163D376
:1000A000C90011469377F60F3E86B385A401480830
:1000B0003EC602CAEF10235F834661010347410138
:1000C0000346710183475101358F230AE100B18F47
:1000D00033C7ED00B346DB00A30AF1003346CA0084
:1000E000B3C7FA00A30FE100A30ED100230EC10095
:1000F000230FF1007408014783C706003386ED0023
:10010000050793870710918FB3E777038506A38FC1
:10011000F6FEE31337FFF2473305990111462C0829
:100120003ECCEF104358B247910C93FCFC0F3E9D20
:10013000137DFD0FE3638DF623009C0105442285AA
:10014000F6406644D6444649B649264A964A064B86
:10015000F25B625CD25C425DB25D256182800144EB
:10016000F9BF39719307400622DC33F4F50226DA31
:1001700013077100B684740806DEB377F602330401
:10018000F402B387C5003E9493978500A181DD8D6D
:100190009317860021825D8E2314B1002315C100C0
:1001A0002C001146D13389C48345710068088294BC
:1001B0002285F2506254D254216182801357850007
:1001C0009357050113D885009376F50F0111137726
:1001D000F70F93F7F70F618593F5F50F1378F80F85
:1001E00099C211C3B9E3230CD100A30CE100230D84
:1001F000F100A30DA100034591018347810103474D
:10020000A1012205A30E01014207C98F230EB100EF
:100210000345B101D98F0347D1018345C10162056F
:1002200022075D8DD98D0561828032951375F50F9A
:1002300013138501135383415D4663576608614676
:100240003363C30285071376D70F114593F7F70F72
:100250006305A6002545631AA6007946637FF6026A
:1002600005071377F70F85470DA809466312C704E2
:100270001386067D93084006B3681603638508005D
:1002800013F5360011C5130500193366A60219EEE1
:1002900075466374F60085470D47230CD100A30C07
:1002A000E100230DF100A30D6100B1B77146D5B790
:1002B0007D46E374F6FEB147E314F7FA850693F63C
:1002C000F60F85470547D1BFE35903FC6105FD17CC
:1002D0001313850193F7F70F13538341DDFF7D1748
:1002E0001377F70F1146F947E309C7FA1946E306F2
:1002F000C7FA2546E303C7FA2D46E300C7FA894744
:100300006316F7021386067D93074006B367F6026D
:1003100091C793F83600F547E38108F89307001971
:10032000B367F60293B71700F10785BFFD4735F7AE
:10033000FD1693F6F60F31478DB783471500034737
:1003400005000111A2075D8F834725008346350014
:1003500083454500C207D98F0347550022CC174477
:10036000FF1F1304E4CB03061420E206220733E543
:10037000F600D98D06CE9935135885001356050120
:1003800093D7850013F7F50F93F7F70F9356850171
:100390001376F60F9375F80F1375F50FEF70A037FE
:1003A00083471400054793F7B70F6397E70062444C
:1003B000F24005616F708045F240624405618280C1
:1003C000138501C98347050013078007B387E70238
:1003D000A1073E958280138501FE8280797122D427
:1003E0002D4697550300938525602A84280006D65C
:1003F000EF10632B2D46975503009385A55F4808A2
:10040000EF10632A2D460DC02C0013854159EF6073
:10041000D02C976503009385E5E62545EFA0601194
:10042000B2502254456182804C0813854159EF60D7
:10043000D02A976503009385E5E5C5B7854763D95D
:10044000B70A797126D24AD052CC5AC85EC662C465
:1004500066C206D622D44ECE56CA2A8A0149930BCA
:10046000100F130C900D938C4159176B0300130B55
:100470006BE09384F5FFB3092A0103C709009307D2
:100480001900631577053307FA0003470700631F58
:10049000870303C4590083C74900CE8522045D8CBD
:1004A000930A8400C20A93DA0A0156866685EF60D1
:1004B000D0225686CE855A85EFA0206C0D45970038
:1004C000FF1FE780E04B93078900A29763E0970244
:1004D000B250225492540259F249624AD24A424BD3
:1004E000B24B224C924C0145456182803E8961B7F6
:1004F0007D558280914763E3C70A1767030013079E
:1005000067DA0A063A961C42411122C406C6BA9717
:100510002A848287977503009385C5231145EFA030
:100520004001A2851145EFA0C0002244B24097755A
:1005300003009385E523114541016F90907FB9CA6F
:100540009747FF1F83C747D181C79042EF50200FC5
:100550002244B2400146975500009385C5143D459D
:1005600041016F30C05D9DC62244C8C2B24003C580
:10057000A6002394B6003686954541016F806075CC
:100580002244B24041016FD030052244B2404101C3
:100590006F30401BB2402244410182808280411171
:1005A00006C6EF908019B24041016F805060411142
:1005B00006C623A4B18601C61C4223ACF1049747AA
:1005C000FF1F83C757A69DEB0545EFA0305C9765DD
:1005D00003009385A5DA2545EF90B0759747FF1F77
:1005E00083D7C72293E707011747FF1F2310F7227E
:1005F000EF80D00EB24041016F40007C05470545B9
:10060000639CE700EFA090580545EFA09014976514
:1006100003009385E5D7C1B7EFA050570545EFA07C
:1006200030630545EFA0F012976503009385C5D7A9
:100630005DB7411122C42A848307D40306C626C2AB
:100640002E8589C71307F0036398E7021747FF1F3A
:100650001307D7A39746FF1F938636A01746FF1FA1
:100660001306969C97650300938545DF2244B240AC
:10067000924441016F10D3549747FF1FA386079AF6
:100680009747FF1FA38B079C9747FF1FA38007A0D7
:10069000034704008547AE8463FAE7009305D4035B
:1006A0001745FF1F13055598EF10F355830794075F
:1006B00091CF03470400894763FAE7009305940745
:1006C0001745FF1F13057599EF10F3538307540B5C
:1006D00091CF034704008D4763FAE7009305540B5D
:1006E0001745FF1F1305959AEF10F35101469745E3
:1006F0000000938545221305C012EF304044EF50AF
:10070000F05E1747FF1F130777989746FF1F9386E2
:10071000D6941746FF1F13063691976503009385FD
:1007200025D62685A1B7411126C206C622C4034795
:1007300005008947AE8463F7E7029305D5032A8451
:10074000130620031745FF1F13050587EF10B3504D
:1007500013059407EF00F3729747FF1F2390A78CB0
:10076000EF505053EF5010579746FF1F83D6068B1C
:100770001746FF1F13064684976503009385854738
:100780002685EF10F34385479735FF1F9385057145
:100790001745FF1F130505811737FF1FA308F776BD
:1007A000EF1073469745FF1F938515881735FF1F78
:1007B0001305E575EF1033459745FF1F9385F589C0
:1007C0001735FF1F1305C577EF10F3439745FF1F3C
:1007D0009385D58B1735FF1F1305A579EF10B3420D
:1007E00097550300938505551735FF1F1305E57FC2
:1007F000EF107341EF50104A014697450000938572
:1008000025117945EF30A0332244B240924401468D
:10081000976500009385457C1305400641016F30C4
:100820000032411122C426C24AC006C68307D5033E
:10083000AE84176903001309E9061744FF1F130468
:10084000E4FC89C71307F0036391E7041745FF1F12
:100850000345F586EF00230B032609008326490094
:10086000EFE0F242EF00934328C8EF007338AE8602
:100870002A8697650300938565032244B2400249A6
:100880002685924441016F10B3331305D503EF0061
:10089000535F9747FF1FA384A7821375F50FEF00DF
:1008A00083060326090083264900EFE0523EEF004D
:1008B000F33E28C8EF5090432848EF007333AE86CC
:1008C0002A86976503009385650045BFAA8703873D
:1008D000D7032E8509C79306F0036315D702973710
:1008E000FF1F83C73774176603001306E6F889E70E
:1008F000176603001306C6F8976503009385C5F9CC
:100900006F10132C41111385D70306C622C42E8401
:10091000EF0033579737FF1FA386A770EF50103DA6
:100920009737FF1F83C71770976503009385C5F539
:1009300089E7976503009385A5F522852244B24097
:1009400041016F10532C411126C206C6AA8422C44D
:100950008387D4032E8589C71307F0036396E704C2
:100960009737FF1F83C7376C05476385E70289CB3D
:1009700009476386E702B2402244924441018280E3
:10098000976503009385C5F82244B2409244410123
:100990006F10732797650300938505FAF5B7976580
:1009A0000300938525FCCDB79384D4032E8426853C
:1009B00097650300938505FEEF10332C1DC1894711
:1009C0001737FF1FA301F766976503009385C500DE
:1009D0002285EF1053232244B240924441016F50CC
:1009E000F0302685EF00F3491375F50F9737FF1F99
:1009F000A38BA7628547976503009385E5FBE30911
:100A0000F5FC97650300938565F979D18947E30D76
:100A1000F5FA1737FF1FA308F76097650300938562
:100A2000E5FD7DB741112E8597650300938505048B
:100A300006C6EF10531D014697450000938545ED0E
:100A40007945EF30C00FB2400146976500009385AD
:100A5000A5581305400641016F30600E411122C4B4
:100A600026C206C68307D503AE841734FF1F1304BE
:100A7000245B89C71307F003639BE70283061420F6
:100A8000176603001306061B63D6060017760300DD
:100A90001306064D2685976503009385E519EF102B
:100AA00033122244B240924441016FA0C0011305A9
:100AB000D503EF00133D9737FF1FA383A776EFA061
:100AC000800003061420976503009385A51825452B
:100AD000EF90F03A834714206147B10793F7F70F7F
:100AE0006377F700A1471737FF1FA30BF772EF508B
:100AF000F01F83061420176603001306A61363D69F
:100B00000600177603001306A6452244B240268548
:100B10009244976503009385651441016F10530A51
:100B2000797122D49307D1012E8478089306B101FC
:100B30001306A101930591011305E10106D626D202
:100B40004AD0EF6030378348D1010348C101834761
:100B5000B1010347A101834691010356E101976565
:100B60000300938565B52285EF1093052285EF106C
:100B7000B30A9744FF1F938464C98C5C03A80404E0
:100B80000566130606E133F3C5029306C0032295FA
:100B9000B378C802B377D80233F7D5023EC0DC5829
:100BA000B3D8D8023358C802B356D30233D6C502DD
:100BB00097650300938585B2EF1093002285EF10AF
:100BC000B3053309A400EF904050176603001306E5
:100BD00066AE09C517660300130686AD9765030068
:100BE0009385C5B34A85EF10A37D2285EF10D3020C
:100BF00094401748FF1F0348A8C11747FF1F03472A
:100C000017C193D726008582858B858A1746FF1FDB
:100C1000034686C597650300938545B12295EF107D
:100C2000237A2285EF10437F22959747FF1F83D7B2
:100C300087C01747FF1F0347A7BD9746FF1F83C6FF
:100C400016BD1746FF1F0346D6BC97650300938564
:100C500065B0EF10E376B2502254925402594561C8
:100C60008280AA870387D7032E8509C79306F003DE
:100C70006311D7029737FF1F83C7073B97550300C0
:100C80009385457489E7975503009385A5766F1082
:100C9000837741111385D70322C406C62E84EF0043
:100CA000531E1375F50F9737FF1F238FA73617377E
:100CB000FF1F0347F73689476316F7000DE9114513
:100CC000EFA020299737FF1F83C7073697550300EA
:100CD0009385C57389E797550300938565762285CB
:100CE000EF1063722244B24041016F503000114551
:100CF000EFA04026C1BFAA870387D7032E8509C767
:100D00009306F003631ED7029737FF1F83C7A731EF
:100D10000547638DE70089C70947638EE700828036
:100D200097550300938585786F10E36D9755030001
:100D30009385057CD5BF9765030093852581EDB725
:100D400041111385D70322C406C62E84EF00731306
:100D50001375F50F9737FF1F2387A72C85479755E6
:100D600003009385E5786306F502975503009385A4
:100D7000E57305C18947975503009385257D630A6F
:100D8000F5001737FF1F2300F72A976503009385A7
:100D9000A5812285EF1023672244B24041016F50A4
:100DA000E074AA870387D7032E8509C79306F0034B
:100DB000631CD7001736FF1F034686309765030074
:100DC000938545A26F10C35F41111385D70306C6F3
:100DD00022C42E84EF00730B9737FF1F2382A72EA8
:100DE000EF50C07022852244B2401736FF1F0346E1
:100DF000262D97650300938525A14101E1B7411197
:100E000022C4130550042E84814506C6EF30F01A23
:100E1000EF50C0632A8622852244B24097650300C2
:100E20009385C5A441016F10A359411122C4130534
:100E3000D5032E84976503009385C59506C6EF906C
:100E4000B01211CD0145EF50E07497650300938512
:100E5000259522852244B24041016F10C35A0545B1
:100E6000EF5040739765030093854595DDB74111B9
:100E700022C42A848307D40306C626C22E8589C7C6
:100E80001307F003639CE7029737FF1F9387B72C84
:100E90001737FF1F130717299736FF1F83D6863989
:100EA0001736FF1F1306F62497650300938545BE8A
:100EB0002244B240924441016F108350AE841735F2
:100EC000FF1F130515239305D403EF10C3531735E4
:100ED000FF1F13051522EF10235493150501C1813F
:100EE0001735FF1F1305F520EF90303F8307940758
:100EF00089CB13059407EF00C3789737FF1F239B17
:100F0000A7328307540B85CB9305540B1735FF1F6E
:100F100013055521EF10234F1735FF1F130595209B
:100F2000EF10834F93150501C1811735FF1F13057E
:100F3000751FEF90903A8307140F85CB9305140F1C
:100F40001735FF1F13053521EF10E34B1735FF1F32
:100F500013057520EF10434C93150501C18117351A
:100F6000FF1F1305551FEF905037EF50205897374C
:100F7000FF1F9387571E1737FF1F1307B71A9736A0
:100F8000FF1F83D6262B1736FF1F1306961697656D
:100F90000300938525B1268521BFAA870387D70340
:100FA0002E8509C79306F003631CD7001736FF1F71
:100FB0000356262797650300938505C16F104340AC
:100FC00041111385D70306C622C42E84EF00636B3C
:100FD000131605019737FF1F2395A72441829765B4
:100FE00003009385A5BF2285EF10833D9737FF1F30
:100FF00083C7170309476388E700ED1793F7F70FD7
:101000000547636AF7009737FF1F83D7872189EB6E
:101010000945EF9030742244B24041016F50004DB9
:10102000EF90B06575D51737FF1F0357871F9307DC
:10103000B003E3EFE7FC0945EF90B071E9BFAA8781
:101040000387D7032E8509C79306F0036313D706DA
:101050009737FF1F83C7971F05476389E70289CF2B
:101060000947638EE7020D476380E7049765030035
:10107000938585AE6F10233917660300130686A487
:1010800097650300938585A56F108333176603006A
:10109000130686A597650300938505A6F5B7176621
:1010A00003001306E6A7FDB717660300130686A81C
:1010B000D5B741111385D70322C426C206C62E8494
:1010C000EF00235C1375F50F9737FF1FA380A71858
:1010D0008544630295041DC18947630AF5048D4761
:1010E000630CF50497650300938505AB2285EF102B
:1010F00083319737FF1FA38B971401A897650300CF
:10110000938505A62285EF1003302244B240924415
:1011100041016F50A03D176603001306E69C9765DA
:101120000300938525A52285EF108329F9BF176653
:1011300003001306E69EE5B7176603001306869FB5
:10114000F9BF011106CE2EC6EF9090508547173794
:10115000FF1FA303F710EF5060393245F240975557
:1011600003009385A54E05616F10E329011106CE9A
:101170002EC6EF90504F9737FF1FA38F070CEF50ED
:10118000E0363245F240975503009385E5510561FD
:101190006F106327011122CC4AC806CE26CA4EC65C
:1011A0008307D5032E891734FF1F130464E789C70B
:1011B0001307F0036395E70203250422EF0043239E
:1011C000AE862A8697550300938585446244F24093
:1011D000D244B2494A85424905616F10631EAA8410
:1011E0001305D503EF008349EF00432BAA8913852C
:1011F0009407EF0003491375F50F1DE53545EF60C2
:101200004078AA854E85EFF052342320A422EF5077
:10121000E02D03250422EF00A31DAE862A869755F4
:101220000300938525405DB723203423CDB7AA87DB
:101230000387D7032E8509C79306F0036315D702EA
:101240009737FF1F83C767011756030013068640B1
:1012500089E7175603001306E64097550300938568
:1012600025416F10E31541111385D70322C406C62B
:101270002E84EF0003411375F50F9737FF1F238E60
:10128000A7FC175603001306E63C09E517560300B2
:101290001306463D2285975503009385E53EEF10E2
:1012A00023122244B24041016F504024411122C414
:1012B00026C206C68307D503AE841734FF1F130466
:1012C00024D689C71307F0036393E7020325C423D9
:1012D000EF000312AE862A86975503009385857525
:1012E0002244B2402685924441016F10630D1305DC
:1012F000D503EF00A338EF00631A232EA422EF508A
:10130000E01E0325C423EF00A30EAE862A86975560
:1013100003009385E573E9B7AA870387D7032E8572
:1013200009C79306F0036315D7029737FF1F83C7DA
:1013300027F3175603001306A64F89E71756030035
:101340001306864F975503009385854F6F1043070B
:1013500041111385D70306C622C42E84EF006332E1
:101360009737FF1F238EA7EEEF5040189737FF1FC8
:1013700083C707EF175603001306864B89E71756F6
:1013800003001306664B22852244B24097550300A2
:101390009385854C41015DBF130101B9232A514555
:1013A000B28A2E86AA85E800232611462324814688
:1013B0002322914623202147232E314523286145AE
:1013C000232C4145368B2326714523248145232236
:1013D00091452320A145232EB143EF90805F130553
:1013E000D104EF10630393150501C1811305D104E6
:1013F000976403009384848EEF90206A01442689C9
:101400009309B002C8409305D104EF90E02D0DC9B7
:101410000E044A948317040013970701230801223E
:1014200041839306A00263F4E6006F10603A1757F9
:101430000300130767E88A07BA979C43BA97828725
:101440000504A104E31034FDFD57F9B71737FF1F5A
:10145000034797D3A1476312F70C19464C10173571
:10146000FF1F1305E5A4EF904045081C2308010267
:10147000001CEF00737A9737FF1F83D7C7DB17373E
:10148000FF1F1307B7D39736FF1F938626A150106F
:10149000976503009385C59E2295EF007372081C23
:1014A000EF0093771C1C1736FF1F1306F6B73E9507
:1014B000976503009385859FEF009370081CEF00EC
:1014C000B3751C1C3E959737FF1F938767B58386BE
:1014D0001720175603001306E67563D60600177625
:1014E00003001306E6A7976503009385A59CEF000C
:1014F000336D1734FF1F0344B4B29307F4FF93F71F
:10150000F70F1547636BF70E17570300130787E5AF
:101510008A07BA979C43BA978287081CEF00D36F5B
:101520001C1C1737FF1F035747D19736FF1F9386A1
:1015300036B91736FF1F1306669697650300938525
:10154000E5953E95EF00D36799BF081CEF00D36C7B
:101550001C1C3E9585479765030093856596630639
:10156000F4009765030093852596C164EF00B36985
:101570001734FF1F1304C4AA173AFF1F130AEAAA5D
:10158000FD149309C003976B0300938B6B9403596D
:101590004420630E9900081CEF001368B3763903EA
:1015A0001C1CDE853E9533563903EF007361090438
:1015B000E31F8AFC081CEF0033661736FF1F034643
:1015C00056A697650300938565911C1C3E95EF0018
:1015D000335F25A0081CEF0033649736FF1F83D6C6
:1015E00006C51736FF1F0356C6C3976503009385CC
:1015F000E58F1C1C3E95EF00B35C081CEF00D36127
:101600001C1C9736FF1F83D6668E1736FF1F0356A6
:10161000068E976503009385A5963E95EF00535A75
:1016200075A4081CEF00535F1736FF1F035626C032
:10163000976503009385C58C49BF081CEF00D35DF7
:101640009736FF1F83D6E6C11736FF1F035666BDC8
:10165000976503009385058C69BF081CEF00D35B79
:101660001C1C3E95C1671734FF1F0354C4BEFD17F1
:101670006303F4021307C003B356E402E1471146C3
:10168000976503009385858B3377E402B3F6F60202
:10169000EF0013539DB71146976503009385458C62
:1016A0003DB7EF3070759737FF1F93872716A84710
:1016B000EFF012542A86AE86081C976503009385C6
:1016C000A58DEF00F34F9737FF1F83C7B7146386CD
:1016D0000710EFE0FFCE2A84081CEF00F3531C1C18
:1016E0003E9583076400175603001306A67489E726
:1016F0001756030013068674976503009385C58A01
:10170000EF00134C081CEF003351AA844850EFF04F
:10171000324E1C1C2A86AE863385970097650300DF
:1017200093850589EF00D349081CEF00F34E1C1C7C
:101730003384A700EF906074175603001306867079
:1017400009E5175603001306267097650300938575
:10175000A5872285EF00D346081CEF00F34B2A84AF
:10176000EF40B04D1C1C2A86976503009385458683
:1017700033858700EF00D344081CEF00F3491C1C9D
:101780003384A700EF908073175603001306066C8E
:1017900009E5175603001306266C97650300938529
:1017A000E5832285EF00D341081CEF00F3461C1CA3
:1017B0003384A700EF80700C17560300130646EF22
:1017C00009E5175603001306E6EE976503009385B7
:1017D000A5812285EF00D33ED5A8081CEF00D34396
:1017E0001C1C975503009385657D3E95EF00B34122
:1017F00025BF175703001307E77F976603009386FB
:101800002680174603001306E6529755030093857A
:10181000E57F081CE1AA8307510C63840712830744
:1018200011106380071213059108EFF0926513758C
:10183000F50F2386A186A147130620039305510CBB
:101840006313F50A1735FF1F13055597EF00B340D3
:101850001735FF1F13059596EF00133C93150501EF
:10186000C1811735FF1F13057595EF9000271305EC
:101870001110EFF01261931605019737FF1F239C9B
:10188000A79AC1821736FF1F130656939755030078
:1018900093858579081CEF00B33283C7C186214741
:1018A000639CE7081737FF1FA300F78E9727FF1FDA
:1018B000A3830760EF409043EF405048014697F5FF
:1018C000FFFF938505CE7945EF206027081CEF00C8
:1018D000B33493150501DA865686C181081CEFE002
:1018E0007FC16F00A0701725FF1F1305757DEF00E6
:1018F00093361725FF1F1305B57CEF00F3319315C1
:101900000501C1811725FF1F1305957BEF90E01C92
:1019100013051110EFF0F256931605019737FF1FCC
:10192000239DA790C1821726FF1F1306767997552E
:10193000030093852571B9BF9737FF1FA3860784DE
:1019400095BF9755030093856571081CEF00B32B75
:10195000B5BF8307910889C71307F003639CE700AD
:101960001726FF1F0346066C975503009385C57124
:10197000081C8DB513059108EFF0B2509727FF1F93
:101980002382A76AEF4090361726FF1F0346866919
:101990009755030093858572E1BF8307910889C736
:1019A0001307F0036398E7081726FF1F03465667DF
:1019B00091476317F604081CEF0013261C1C3E9584
:1019C000C1671734FF1F03540489FD176303F40232
:1019D0001307C003B356E402E147114697550300CD
:1019E000938585713377E402B3F6F602EF00531D59
:1019F000F1BD9755030093856572EF00731CF9B52F
:101A000099479736FF1F83D6C681631CF6001737A8
:101A1000FF1F035707851946975503009385C57126
:101A2000CDBB1737FF1F035787809755030093855A
:101A30006572C5B39737FF1F938747DD9C5F13051A
:101A400091081737FF1F2321F7E0EFF092432A8414
:101A5000937BF50F1145EF90E04F1374F40F8D4712
:101A60006309F43E63C087028547630CF40E89471F
:101A7000630CF430976503009385459E081CEF00C6
:101A8000931859AAD547630EF40CDD476303F43C61
:101A90009147E311F4FE0347C104894763FFE7025E
:101AA0001305510CEF0053177515854763E1A74CDB
:101AB0001305510CEFF0F23C42054181130740063B
:101AC000B357E5029306C0033375E502B387D70227
:101AD000AA971727FF1F2310F77891471727FF1F93
